:020000040000FA
:100000009F29820768346F346A34673465346D34ED
:1000100013345734083463346434623460346E34D7
:100020005634503420082107820700005E344A34D9
:100030001834693438346B3417346C3419347034F0
:100040002034713440347234393474343F3475346C
:1000500048347A3428347C3447347D34C9340E34FF
:1000600054344E3466345534E1345434E9345B341A
:1000700058344C3455345234D1345D346A344134BC
:100080007234493468344A34533416345B341E3481
:10009000633426346B34253473342E34763436345A
:1000A00074343D3477343E34643446345C344534FF
:1000B0000C088207FF34FF34F634F434F234F034A1
:1000C000F134FF34FF34FF34F734F534F3342B3498
:1000D0006034FF34FF340F3400342F3437340234AB
:1000E0000334FA34FB34F8340834093401340A3464
:1000F0000B34FF34F93418341034113412341B34F7
:100100001334FF34FF3407342034193422341A34C2
:100110002334FF34FF341F3427342634213425346C
:100120002434FF344B343C3417341E341D341C3417
:10013000143444344C346F34163415340D340434D0
:100140000C34FC34FD34673470340E345D340534C3
:100150006E34FF34FF34FF346C34FF34ED345E34DE
:10016000FF34FF34333400340634E534FF34D934FB
:100170007034FF3477345A346E3466341334243494
:100180002C342334043403340B341B341C34143423
:100190000C346734073982070134023404340834DC
:1001A00010342034403480348D018E018F01900151
:1001B00091018030A3058601061706138617861362
:1001C000860A861DDC2800340130A0008601031059
:1001D00020080D05031D861520080E05031D0616B3
:1001E00020080F05031D861606170613073086051F
:1001F00020081005031D861520081105031D06168D
:1002000086178613860A07308605A00D031CE8288A
:1002100000340130A100031B00347D30A000010830
:10022000031D0034A00B0F29A10B0D290034A430AD
:10023000A000A00B192900340D100F302305031D59
:100240002329A21E031F0D140034A0001220A003B6
:100250000C0203192E29A00B2629302912208C000C
:10026000003464000108A1002830A0000515051C19
:100270004329A00B37290108031931292106031D41
:1002800031290511FF2A05155821851857290930EC
:10029000A00058218C0C031085180314A00B4929C9
:1002A0005821851C57290511FA300C020034B32956
:1002B00005185829051C5A2900348C0005111721EE
:1002C00085111721051575210A30A000051866292A
:1002D0000C1C85110C1885155A218C0C0314A00BCD
:1002E000662958218518572943290C0E0C06A000B1
:1002F000A00CA00C2006A000A00CA0060130A006B7
:10030000A00C00342B309200333093003B3094002B
:1003100043309500D4309600EC309700E4309800DC
:10032000CC30990034309A002C309B0052309C0025
:1003300062309D0043309E003B309F0000340C3003
:100340008500F330650000308600003066002F30F5
:10035000620005308C00A10119216400A10BAC29B9
:100360008C0BAB298221FF305D21A201A214A301D5
:100370008101D420831303133121E0300C02031DCB
:10038000C3298317BC29F0300C02031DC9290317A8
:10039000BC29E1300C02031DD8294321F0300C02A6
:1003A000031DD52903174321432143210F30F5298C
:1003B000AA300C020319BA29831FE52912300C0256
:1003C0000319BA29A1011830252183300C0202300B
:1003D0000319F52984300C025F300319F5297030B8
:1003E0000C02031CF6291F3901208C0011300C026D
:1003F000803003190A2A14300C02403003190A2AEB
:1004000012300C02203003190A2A59300C02031949
:10041000022A0D2AA204031BA206031B2F2AA21FD5
:100420002F2A5F300C02031D1A2AC2308600A21345
:100430008601BA29221F2F2A13300C020319B22970
:1004400020300C020319282A6F300C02031D2F2ABA
:10045000C1308600FF305D210630A205B729221881
:10046000742B8C080319B529A21A382AA21F4C2A0A
:1004700009300C0202300319472A08300C020430FC
:100480000319472A07300C02031D4C2A0830A20426
:10049000A21FA206D420BA2913300C02031D542A2D
:1004A000D4202F308C00882AA21D6F2A14300C0211
:1004B00004300319522A3F300C020C300319522A1F
:1004C00040300C0214300319522A38300C02243008
:1004D0000319522A39300C021C300319522A231EE8
:1004E000A21AC02A58208C000C0A0319BE2AF03028
:1004F0000C02031C842A84001230840700088C003C
:10050000F0300C020318BE2A78300C020318E02ADF
:1005100050300C02031C912A8C008E13031F8E177F
:10052000AF2A28300C02031CB12A8C000D10233096
:100530000C0202300319AB2A24300C0204300319D8
:10054000AB2A1C300C0208300319AB2A14300C0201
:100550000130031DAE2AA304031BA3061C21E420C3
:1005600009210C08CA20A1008C0D0C0E073984004B
:100570000D30840721088004031B8006E420BA297B
:100580001830A1001630A21C2A302521201C722A06
:10059000031FD42A24080C020319D12AA00A2E21F1
:1005A000722A23121C21DB2A231EA31ABE2A0D1035
:1005B00023160C08A40078300C02031C882AE22AB7
:1005C000231ABE2AA0000C08031FED2A2402031DD3
:1005D000BE2AA31220088C00882AA31ABE2AA400CF
:1005E000A31620088C002219882A8E170D14E420E7
:1005F00023300A218E130D10E4200921882A8C0152
:10060000A31B282B3F30010203199F29811B122BAA
:10061000011B122B811A1A2B011A382B8119142B4A
:100620002218482381013129ED305D210108073965
:100630005D21122B01080F39A0000E302002031893
:10064000122B123020078400FF308000A317122BDA
:10065000123084000E30A000FF3000020319342B4A
:10066000840AA00B2C2B362B01038000A313122B22
:10067000221C3D2B01183D2B822101080F39A000BF
:100680002208F0392004A200D420221C122B9D2B1A
:1006900023081F39A00024081F392002031C552BF2
:1006A000860106170613241300340D3023073F3943
:1006B00084000130A00086010310241720080005E3
:1006C000031D86168617861307308605860AA00D39
:1006D000031C5E2B1030A41B203086000617061367
:1006E000A30A8030A40600340D08A00020082307C8
:1006F0001F390319842B84000008A10020088400FE
:1007000021088000A00A762B23081F39A402A30128
:1007100024081F39A0001330200203199B2B0D3031
:10072000240784000C088000031B8017A40A241BE4
:10073000BA294823BA299F01972BF1308D00F13057
:100740008E00F0308F009001A3010430A400112B23
:0207FE009F2931
:02400E00FE3F73
:00000001FF
