:020000040000FA
:10000000E20168086F086A08670865086D08130848
:100010005708080863086408620860086E085608F4
:1000200050080702C801E20100005E084A081808EB
:10003000690838086B0817086C0819087008200848
:10004000710840087208390874083F0875084808A4
:100050007A0828087C0847087D08C9080E08540853
:100060004E0866085508E1085408E9085B08580876
:100070004C0855085208D1085D086A084108720802
:10008000490868084A08530816085B081E086308F0
:1000900026086B08250873082E08760836087408A9
:1000A0003D0877083E08640846085C0845080C02CD
:1000B000E201FF08FF08F608F408F208F008F1086A
:1000C000FF08FF08FF08F708F508F3082B08600889
:1000D000FF08FF080F0800082F0837080208030868
:1000E000FA08FB08F8080808090801080A080B08BC
:1000F000FF08F90818081008110812081B0813084F
:10010000FF08FF0807082008190822081A08230812
:10011000FF08FF081F0827082608210825082408CB
:10012000FF084B083C0817081E081D081C08140887
:1001300044084C086F08160815080D0804080C0838
:10014000FC08FD08670870080E085D0805086E08C1
:10015000FF08FF08FF086C08FF08ED085E08FF08AD
:10016000FF08330800080608E508FF08D9087008EA
:10017000FF0877085A086E086608130824082C0838
:100180002308040803080B081B081C0814080C08A3
:100190006708070EE20101080208040808081008B1
:1001A0002008400880086D006E006F00700071002C
:1001B000800C6A016600C605C604E605E604A602D0
:1001C0006607DB0A0008010C27006600030407022B
:1001D0004D014307660507024E01430786050702E6
:1001E0004F014307A605C605C604070C66010702B2
:1001F0005001430766050702510143078605E605DE
:10020000E604A602070C660167030307E70A000875
:100210000C0C2500F30C0500000C2600000C060059
:100220002F0C0200050C2C006800A3051009A30484
:100230000400E802150BEC02140BA3057E09A304CD
:10024000FF0CA3055909A304690029056A00610090
:10025000D309E304C304A3052C09A304E00C8C0018
:100260004307340BE3052B0BF00C8C0043073A0BD0
:10027000C3052B0BE10C8C0043074F0BA3053E0974
:10028000A304F00C8C0043074A0BC305A3053E09E9
:100290003E09A304A3053E09A3040F0C6E0BAA0C90
:1002A0008C004306290BE3075E0B120C8C004306FF
:1002B000290B6800180CA3051C09A304830C8C00EF
:1002C000020C43066E0B840C8C005F0C43066E0B15
:1002D000700C8C0003076F0B1F0E00092C00110C13
:1002E0008C00800C4306830B140C8C00400C4306DE
:1002F000830B120C8C00200C4306830B590C8C00D2
:1003000043067B0B860B2901C306A901C306AA0B72
:10031000E907AA0B5F0C8C004307930BC20C260065
:10032000E9046600290BC907AA0B130C8C004306CD
:100330001D0B200C8C004306A10B6F0C8C00430797
:10034000AA0BC10C2600FF0CA3055909A304060C37
:100350006901260BA3050906AD0BA3042C02430675
:10036000240BA906B50BE907C90B090C8C00020C7C
:100370004306C40B080C8C00040C4306C40B070C8A
:100380008C004307C90B080C2901E907A901D3090F
:10039000290B130C8C004307D20BD3092F0C2C0014
:1003A000A305DF0A6907ED0B140C8C00040C43064F
:1003B000CF0B3F0C8C000C0C4306CF0B400C8C0079
:1003C000140C4306CF0B380C8C00240C4306CF0BC7
:1003D000390C8C001C0C4306CF0BA3058A07A90619
:0403E0001C0BC70A21
:10040000010C2800C30600087D0C270001024307E9
:100410000008E702060AE802040A0008A40C270004
:10042000E702100A00080D040F0C4A0143071A0ADC
:10043000A907C3070D0500082700A3041109A30598
:10044000E7008C004306270AE7021D0A2B0AA304D3
:100450001109A3052C000008040001022800280C43
:100460002700450505073E0AE702320A0102430656
:100470002C0A880143072C0A45045F0B45055409E3
:100480002506520A090C270054092C0303042506EB
:100490000305E702440A54092507520A4504FA0CE9
:1004A0008C000008A304200B0506540A0507560A11
:1004B00000082C0045040E0965040E094505710964
:1004C0000A0C27000506620A0C0765040C06650580
:1004D00056092C030305E702620A54092506520A4D
:1004E0003E0A8C038C01270027032703870127007E
:1004F0002703A701010CA701270300082B0C3200DA
:10050000330C33003B0C3400430C3500D40C360064
:10051000EC0C3700E40C3800CC0C3900340C3A00F9
:100520002C0C3B00520C3C00620C3D00430C3E0086
:100530003B0C3F0000080A021F0E27000B021F0E93
:1005400087000307A80A6600C605C604CB04000896
:100550000D0CCA013F0E2400010C270066000304A5
:10056000CB05070240014307A605E605E604070C94
:100570006601A60267030307B10A100CEB06200C04
:100580002600C605C604AA02800CAB010008A3041D
:100590005709A3052C008C024306190BF00C8C00A4
:1005A0000307DB0A2400120CE40100022C00F00C0B
:1005B0008C000306190B780C8C0003063C0B500CC6
:1005C0008C000307E80A2C00EE04C307EE05060BB7
:1005D000280C8C0003070A0B2C000D04230C8C0044
:1005E000020C4306020B240C8C00040C4306020B85
:1005F0001C0C8C00080C4306020B140C8C00010C24
:100600004307050B2A01C306AA011309A304E30942
:10061000A30500090C02A304C909A30528006C0363
:100620008C03070E24000D0CE40108022001C30610
:10063000A001A304E309290B180C2800160C2907B4
:100640002A0C1C090707C70AC307300B0B028C00D2
:1006500043062D0BA7022709C70A8A041309370B83
:100660008A07AA06190B0D048A050C022B00780CC8
:100670008C000307DF0A3E0B8A06190B27000C02C9
:10068000C307490B8B004307190BAA0407022C0070
:10069000DF0AAA06190B2B00AA0507022C0049063F
:1006A000DF0AEE050D05A304E309A305230C0109E8
:1006B000EE040D04A304E309A3050009DF0A6C009E
:1006C000EA068B0B3F0C8100A3044306080BA3052D
:1006D000E106740BC106740BA1067D0B81069B0B12
:1006E0006106760B09069B0961002C0AED0C59097D
:1006F0000102070E5909A304290B01020F0E27005E
:100700000E0C87000306740B120CC7012400FF0CAB
:100710002000EA05740B120C24000E0C2700FF0CBD
:1007200080004306970BA402E7028F0B990BC100D0
:100730002000EA04740B0907A00B0106A00B7E0938
:1007400001020F0E27000902F00E07012900A30481
:10075000D309A3050907740BD90B0D022700070263
:10076000CA011F0E4306BD0B240000022800070229
:10077000240008022000A702AF0B0A021F0EAB00E4
:100780006A000B021F0E2700130C87004306D70BCD
:100790000D0CCB0124000C022000C306E005AB02C7
:1007A000A304CB06290BA3059B09A304290B7F00F7
:1007B000D00BF10C2D00F10C2E00F00C2F0070006E
:0807C0006A00040C2B00730B0E
:0207FE00080BE6
:021FFE00FE0FD4
:00000001FF
